{
  "_format": "hh-sol-artifact-1",
  "contractName": "Transactions",
  "sourceName": "contracts/Transactions.sol",
  "abi": [
    {
      "inputs": [],
      "stateMutability": "nonpayable",
      "type": "constructor"
    },
    {
      "anonymous": false,
      "inputs": [
        {
          "indexed": false,
          "internalType": "address",
          "name": "from",
          "type": "address"
        },
        {
          "indexed": false,
          "internalType": "address",
          "name": "receiver",
          "type": "address"
        },
        {
          "indexed": false,
          "internalType": "uint256",
          "name": "amount",
          "type": "uint256"
        },
        {
          "indexed": false,
          "internalType": "string",
          "name": "message",
          "type": "string"
        },
        {
          "indexed": false,
          "internalType": "uint256",
          "name": "timestamp",
          "type": "uint256"
        },
        {
          "indexed": false,
          "internalType": "string",
          "name": "keyword",
          "type": "string"
        }
      ],
      "name": "Transfer",
      "type": "event"
    },
    {
      "inputs": [],
      "name": "TransactionCount",
      "outputs": [
        {
          "internalType": "uint256",
          "name": "",
          "type": "uint256"
        }
      ],
      "stateMutability": "view",
      "type": "function"
    },
    {
      "inputs": [
        {
          "internalType": "address payable",
          "name": "receiver",
          "type": "address"
        },
        {
          "internalType": "uint256",
          "name": "amount",
          "type": "uint256"
        },
        {
          "internalType": "string",
          "name": "message",
          "type": "string"
        },
        {
          "internalType": "string",
          "name": "keyword",
          "type": "string"
        }
      ],
      "name": "addToBlockchain",
      "outputs": [],
      "stateMutability": "nonpayable",
      "type": "function"
    },
    {
      "inputs": [],
      "name": "getAllTransactions",
      "outputs": [
        {
          "components": [
            {
              "internalType": "uint256",
              "name": "amount",
              "type": "uint256"
            },
            {
              "internalType": "address",
              "name": "sender",
              "type": "address"
            },
            {
              "internalType": "address",
              "name": "receiver",
              "type": "address"
            },
            {
              "internalType": "string",
              "name": "message",
              "type": "string"
            },
            {
              "internalType": "uint256",
              "name": "timestamp",
              "type": "uint256"
            },
            {
              "internalType": "string",
              "name": "keyword",
              "type": "string"
            }
          ],
          "internalType": "struct Transactions.TransferStruct[]",
          "name": "",
          "type": "tuple[]"
        }
      ],
      "stateMutability": "view",
      "type": "function"
    },
    {
      "inputs": [
        {
          "internalType": "uint256",
          "name": "index",
          "type": "uint256"
        }
      ],
      "name": "getTransactionByIndex",
      "outputs": [
        {
          "components": [
            {
              "internalType": "uint256",
              "name": "amount",
              "type": "uint256"
            },
            {
              "internalType": "address",
              "name": "sender",
              "type": "address"
            },
            {
              "internalType": "address",
              "name": "receiver",
              "type": "address"
            },
            {
              "internalType": "string",
              "name": "message",
              "type": "string"
            },
            {
              "internalType": "uint256",
              "name": "timestamp",
              "type": "uint256"
            },
            {
              "internalType": "string",
              "name": "keyword",
              "type": "string"
            }
          ],
          "internalType": "struct Transactions.TransferStruct",
          "name": "",
          "type": "tuple"
        }
      ],
      "stateMutability": "view",
      "type": "function"
    },
    {
      "inputs": [],
      "name": "getTransactionCount",
      "outputs": [
        {
          "internalType": "uint256",
          "name": "",
          "type": "uint256"
        }
      ],
      "stateMutability": "view",
      "type": "function"
    },
    {
      "inputs": [
        {
          "internalType": "uint256",
          "name": "",
          "type": "uint256"
        }
      ],
      "name": "transactions",
      "outputs": [
        {
          "internalType": "uint256",
          "name": "amount",
          "type": "uint256"
        },
        {
          "internalType": "address",
          "name": "sender",
          "type": "address"
        },
        {
          "internalType": "address",
          "name": "receiver",
          "type": "address"
        },
        {
          "internalType": "string",
          "name": "message",
          "type": "string"
        },
        {
          "internalType": "uint256",
          "name": "timestamp",
          "type": "uint256"
        },
        {
          "internalType": "string",
          "name": "keyword",
          "type": "string"
        }
      ],
      "stateMutability": "view",
      "type": "function"
    },
    {
      "inputs": [],
      "name": "unlockTime",
      "outputs": [
        {
          "internalType": "uint256",
          "name": "",
          "type": "uint256"
        }
      ],
      "stateMutability": "view",
      "type": "function"
    }
  ],
  "bytecode": "0x608060405234801561001057600080fd5b50611494806100206000396000f3fe608060405234801561001057600080fd5b506004361061007d5760003560e01c80637f1054021161005b5780637f105402146100dc578063869152e7146100fa5780639ace38c21461012a578063cc2d7ead1461015f5761007d565b8063251c1aa31461008257806327506f53146100a05780632e7700f0146100be575b600080fd5b61008a61017b565b60405161009791906109c2565b60405180910390f35b6100a8610181565b6040516100b59190610c0f565b60405180910390f35b6100c66103c4565b6040516100d391906109c2565b60405180910390f35b6100e46103d1565b6040516100f191906109c2565b60405180910390f35b610114600480360381019061010f9190610c71565b6103d7565b6040516101219190610d2e565b60405180910390f35b610144600480360381019061013f9190610c71565b6105f7565b60405161015696959493929190610da9565b60405180910390f35b61017960048036038101906101749190610f8b565b610793565b005b60005481565b60606002805480602002602001604051908101604052809291908181526020016000905b828210156103bb57838290600052602060002090600602016040518060c0016040529081600082015481526020016001820160009054906101000a900473ffffffffffffffffffffffffffffffffffffffff1673ffffffffffffffffffffffffffffffffffffffff1673ffffffffffffffffffffffffffffffffffffffff1681526020016002820160009054906101000a900473ffffffffffffffffffffffffffffffffffffffff1673ffffffffffffffffffffffffffffffffffffffff1673ffffffffffffffffffffffffffffffffffffffff16815260200160038201805461028e90611059565b80601f01602080910402602001604051908101604052809291908181526020018280546102ba90611059565b80156103075780601f106102dc57610100808354040283529160200191610307565b820191906000526020600020905b8154815290600101906020018083116102ea57829003601f168201915b505050505081526020016004820154815260200160058201805461032a90611059565b80601f016020809104026020016040519081016040528092919081815260200182805461035690611059565b80156103a35780601f10610378576101008083540402835291602001916103a3565b820191906000526020600020905b81548152906001019060200180831161038657829003601f168201915b505050505081525050815260200190600101906101a5565b50505050905090565b6000600280549050905090565b60015481565b6103df610947565b600282815481106103f3576103f261108a565b5b90600052602060002090600602016040518060c0016040529081600082015481526020016001820160009054906101000a900473ffffffffffffffffffffffffffffffffffffffff1673ffffffffffffffffffffffffffffffffffffffff1673ffffffffffffffffffffffffffffffffffffffff1681526020016002820160009054906101000a900473ffffffffffffffffffffffffffffffffffffffff1673ffffffffffffffffffffffffffffffffffffffff1673ffffffffffffffffffffffffffffffffffffffff1681526020016003820180546104d290611059565b80601f01602080910402602001604051908101604052809291908181526020018280546104fe90611059565b801561054b5780601f106105205761010080835404028352916020019161054b565b820191906000526020600020905b81548152906001019060200180831161052e57829003601f168201915b505050505081526020016004820154815260200160058201805461056e90611059565b80601f016020809104026020016040519081016040528092919081815260200182805461059a90611059565b80156105e75780601f106105bc576101008083540402835291602001916105e7565b820191906000526020600020905b8154815290600101906020018083116105ca57829003601f168201915b5050505050815250509050919050565b6002818154811061060757600080fd5b90600052602060002090600602016000915090508060000154908060010160009054906101000a900473ffffffffffffffffffffffffffffffffffffffff16908060020160009054906101000a900473ffffffffffffffffffffffffffffffffffffffff169080600301805461067c90611059565b80601f01602080910402602001604051908101604052809291908181526020018280546106a890611059565b80156106f55780601f106106ca576101008083540402835291602001916106f5565b820191906000526020600020905b8154815290600101906020018083116106d857829003601f168201915b50505050509080600401549080600501805461071090611059565b80601f016020809104026020016040519081016040528092919081815260200182805461073c90611059565b80156107895780601f1061075e57610100808354040283529160200191610789565b820191906000526020600020905b81548152906001019060200180831161076c57829003601f168201915b5050505050905086565b60018060008282546107a591906110e8565b9250508190555060026040518060c001604052808581526020013373ffffffffffffffffffffffffffffffffffffffff1681526020018673ffffffffffffffffffffffffffffffffffffffff1681526020018481526020014281526020018381525090806001815401808255809150506001900390600052602060002090600602016000909190919091506000820151816000015560208201518160010160006101000a81548173ffffffffffffffffffffffffffffffffffffffff021916908373ffffffffffffffffffffffffffffffffffffffff16021790555060408201518160020160006101000a81548173ffffffffffffffffffffffffffffffffffffffff021916908373ffffffffffffffffffffffffffffffffffffffff16021790555060608201518160030190816108dd91906112c8565b506080820151816004015560a08201518160050190816108fd91906112c8565b5050507f416cfa4330a4565f45c2fd2dd4826a83a37443aba2ce6f79477c7355afac35fa338585854286604051610939969594939291906113ef565b60405180910390a150505050565b6040518060c0016040528060008152602001600073ffffffffffffffffffffffffffffffffffffffff168152602001600073ffffffffffffffffffffffffffffffffffffffff1681526020016060815260200160008152602001606081525090565b6000819050919050565b6109bc816109a9565b82525050565b60006020820190506109d760008301846109b3565b92915050565b600081519050919050565b600082825260208201905092915050565b6000819050602082019050919050565b610a12816109a9565b82525050565b600073ffffffffffffffffffffffffffffffffffffffff82169050919050565b6000610a4382610a18565b9050919050565b610a5381610a38565b82525050565b600081519050919050565b600082825260208201905092915050565b60005b83811015610a93578082015181840152602081019050610a78565b60008484015250505050565b6000601f19601f8301169050919050565b6000610abb82610a59565b610ac58185610a64565b9350610ad5818560208601610a75565b610ade81610a9f565b840191505092915050565b600060c083016000830151610b016000860182610a09565b506020830151610b146020860182610a4a565b506040830151610b276040860182610a4a565b5060608301518482036060860152610b3f8282610ab0565b9150506080830151610b546080860182610a09565b5060a083015184820360a0860152610b6c8282610ab0565b9150508091505092915050565b6000610b858383610ae9565b905092915050565b6000602082019050919050565b6000610ba5826109dd565b610baf81856109e8565b935083602082028501610bc1856109f9565b8060005b85811015610bfd5784840389528151610bde8582610b79565b9450610be983610b8d565b925060208a01995050600181019050610bc5565b50829750879550505050505092915050565b60006020820190508181036000830152610c298184610b9a565b905092915050565b6000604051905090565b600080fd5b600080fd5b610c4e816109a9565b8114610c5957600080fd5b50565b600081359050610c6b81610c45565b92915050565b600060208284031215610c8757610c86610c3b565b5b6000610c9584828501610c5c565b91505092915050565b600060c083016000830151610cb66000860182610a09565b506020830151610cc96020860182610a4a565b506040830151610cdc6040860182610a4a565b5060608301518482036060860152610cf48282610ab0565b9150506080830151610d096080860182610a09565b5060a083015184820360a0860152610d218282610ab0565b9150508091505092915050565b60006020820190508181036000830152610d488184610c9e565b905092915050565b610d5981610a38565b82525050565b600082825260208201905092915050565b6000610d7b82610a59565b610d858185610d5f565b9350610d95818560208601610a75565b610d9e81610a9f565b840191505092915050565b600060c082019050610dbe60008301896109b3565b610dcb6020830188610d50565b610dd86040830187610d50565b8181036060830152610dea8186610d70565b9050610df960808301856109b3565b81810360a0830152610e0b8184610d70565b9050979650505050505050565b6000610e2382610a18565b9050919050565b610e3381610e18565b8114610e3e57600080fd5b50565b600081359050610e5081610e2a565b92915050565b600080fd5b600080fd5b7f4e487b7100000000000000000000000000000000000000000000000000000000600052604160045260246000fd5b610e9882610a9f565b810181811067ffffffffffffffff82111715610eb757610eb6610e60565b5b80604052505050565b6000610eca610c31565b9050610ed68282610e8f565b919050565b600067ffffffffffffffff821115610ef657610ef5610e60565b5b610eff82610a9f565b9050602081019050919050565b82818337600083830152505050565b6000610f2e610f2984610edb565b610ec0565b905082815260208101848484011115610f4a57610f49610e5b565b5b610f55848285610f0c565b509392505050565b600082601f830112610f7257610f71610e56565b5b8135610f82848260208601610f1b565b91505092915050565b60008060008060808587031215610fa557610fa4610c3b565b5b6000610fb387828801610e41565b9450506020610fc487828801610c5c565b935050604085013567ffffffffffffffff811115610fe557610fe4610c40565b5b610ff187828801610f5d565b925050606085013567ffffffffffffffff81111561101257611011610c40565b5b61101e87828801610f5d565b91505092959194509250565b7f4e487b7100000000000000000000000000000000000000000000000000000000600052602260045260246000fd5b6000600282049050600182168061107157607f821691505b6020821081036110845761108361102a565b5b50919050565b7f4e487b7100000000000000000000000000000000000000000000000000000000600052603260045260246000fd5b7f4e487b7100000000000000000000000000000000000000000000000000000000600052601160045260246000fd5b60006110f3826109a9565b91506110fe836109a9565b9250828201905080821115611116576111156110b9565b5b92915050565b60008190508160005260206000209050919050565b60006020601f8301049050919050565b600082821b905092915050565b60006008830261117e7fffffffffffffffffffffffffffffffffffffffffffffffffffffffffffffffff82611141565b6111888683611141565b95508019841693508086168417925050509392505050565b6000819050919050565b60006111c56111c06111bb846109a9565b6111a0565b6109a9565b9050919050565b6000819050919050565b6111df836111aa565b6111f36111eb826111cc565b84845461114e565b825550505050565b600090565b6112086111fb565b6112138184846111d6565b505050565b5b818110156112375761122c600082611200565b600181019050611219565b5050565b601f82111561127c5761124d8161111c565b61125684611131565b81016020851015611265578190505b61127961127185611131565b830182611218565b50505b505050565b600082821c905092915050565b600061129f60001984600802611281565b1980831691505092915050565b60006112b8838361128e565b9150826002028217905092915050565b6112d182610a59565b67ffffffffffffffff8111156112ea576112e9610e60565b5b6112f48254611059565b6112ff82828561123b565b600060209050601f8311600181146113325760008415611320578287015190505b61132a85826112ac565b865550611392565b601f1984166113408661111c565b60005b8281101561136857848901518255600182019150602085019450602081019050611343565b868310156113855784890151611381601f89168261128e565b8355505b6001600288020188555050505b505050505050565b60006113b56113b06113ab84610a18565b6111a0565b610a18565b9050919050565b60006113c78261139a565b9050919050565b60006113d9826113bc565b9050919050565b6113e9816113ce565b82525050565b600060c0820190506114046000830189610d50565b61141160208301886113e0565b61141e60408301876109b3565b81810360608301526114308186610d70565b905061143f60808301856109b3565b81810360a08301526114518184610d70565b905097965050505050505056fea2646970667358221220cd5fbe6acef816ec36a6fd924eded9d97d6c74129d311eff9985c871daf9a70064736f6c63430008130033",
  "linkReferences": {},
  "deployedLinkReferences": {}
}